:100000000C9430000C944D000C944D000C944D0059
:100010000C944D000C944D000C944D000C944D002C
:100020000C944D000C944D000C944D000C944D001C
:100030000C944D000C944D000C944D000C944D000C
:100040000C944D000C944D000C944D000C944D00FC
:100050000C944D006364696E6F70737578585B0023
:1000600011241FBECFE5D8E0DEBFCDBF10E0A0E673
:10007000B0E0ECE1FFE302C005900D92A03DB107B6
:10008000D9F710E0A0EDB0E001C01D92AB3DB10783
:10009000E1F70E94550E0C948C1F0C940000EF9217
:1000A000FF920F931F937B018C0120E030E040E032
:1000B0005FE40E944F0388238CF0C801B70120E061
:1000C00030E040E05FE40E94C7010E94AF039B0163
:1000D000AC01205030404040504806C0C801B70134
:1000E0000E94AF039B01AC01B901CA011F910F919E
:1000F000FF90EF900895A0E0B0E0E1E8F0E00C940C
:10010000A918DC012B01FA019C91923008F439C145
:10011000EB018881823008F433C1943069F4843073
:1001200009F02FC111969C9111978981981709F4B4
:1001300028C1A9EBB0E025C1843009F421C1823087
:10014000A9F4923009F01DC19A01AD0188E0EA01DD
:100150000990AE01E90109929E018150C1F7E201C7
:10016000898111969C918923818308C1923009F479
:1001700007C112962D903C901397EB018A819B81C9
:100180001496AD90BD90CD90DC901797EC80FD80DB
:100190000E811F819101281B390BB90137FF04C063
:1001A00066277727621B730B603271050CF061C004
:1001B000121613066CF537014801062E04C09694FA
:1001C0008794779467940A94D2F721E030E040E076
:1001D00050E004C0220F331F441F551F6A95D2F709
:1001E00021503040404050402E213F214023512398
:1001F000211531054105510521F021E030E040E0B5
:1002000050E079018A01E628F728082919293CC01D
:10021000232BD1F1260E371E35014601062E04C0D0
:1002200096948794779467940A94D2F721E030E00B
:1002300040E050E004C0220F331F441F551F6A9551
:10024000D2F721503040404050402A213B214C21E0
:100250005D21211531054105510521F021E030E0F6
:1002600040E050E059016A01A628B728C828D928DB
:100270000BC0821593052CF01C01AA24BB24650138
:1002800003C0EE24FF24870111969C91D2011196A0
:100290008C91981709F445C0992339F0A80197016A
:1002A0002A193B094C095D0906C0A60195012E19C2
:1002B0003F09400B510B57FD08C011823382228247
:1002C00024833583468357831DC081E08183338235
:1002D000228288279927DC01821B930BA40BB50B84
:1002E00084839583A683B7830DC0220F331F441FD9
:1002F000551F2483358346835783828193810197D9
:10030000938382832481358146815781DA01C90133
:100310000197A109B1098F5F9F4FAF4FBF4328F3EA
:100320000BC0918333822282EA0CFB1C0C1D1D1D25
:10033000E482F5820683178383E0808324813581FC
:100340004681578157FF1AC0C901AA2797FDA0957A
:10035000BA2F81709070A070B07056954795379500
:100360002795822B932BA42BB52B84839583A6836F
:10037000B78382819381019693838283DF0101C0D9
:10038000D201CD01CDB7DEB7E2E10C94C518A0E2F1
:10039000B0E0EDECF1E00C94B51869837A838B83BF
:1003A0009C832D833E834F835887E9E0EE2EF12C0A
:1003B000EC0EFD1ECE010196B7010E94D8048E01FD
:1003C0000F5E1F4FCE010596B8010E94D8048A899E
:1003D00091E089278A8BC701B801AE01475E5F4F64
:1003E0000E947B000E940304A096E6E00C94D118C2
:1003F000A0E2B0E0EEEFF1E00C94B51869837A83E7
:100400008B839C832D833E834F835887F9E0EF2EA7
:10041000F12CEC0EFD1ECE010196B7010E94D8040E
:100420008E010F5E1F4FCE010596B8010E94D804C1
:10043000C701B801AE01475E5F4F0E947B000E947A
:100440000304A096E6E00C94D118A0E2B0E0EBE241
:10045000F2E00C94A91869837A838B839C832D83A3
:100460003E834F835887CE010196BE01675F7F4F61
:100470000E94D804CE010596BE016F5E7F4F0E9498
:10048000D8049985923088F089898230C8F09430F8
:1004900019F4823051F404C0843029F4923081F48C
:1004A00089EB90E0C6C0923049F420E09A858A89B1
:1004B000981321E02A87CE010996BBC0823049F407
:1004C00020E09A858A89981321E02A8BCE014196F3
:1004D000B0C02D843E844F8458886D887E888F8874
:1004E000988CEE24FF248701AA24BB24650140E0F8
:1004F00050E060E070E0E0E0F0E0C10181709070F9
:10050000892BE9F0E60CF71C081D191D9A01AB01B7
:100510002A0D3B1D4C1D5D1D80E090E0A0E0B0E089
:10052000E614F7040805190520F481E090E0A0E046
:10053000B0E0BA01A901480F591F6A1F7B1FAA0C1E
:10054000BB1CCC1CDD1C97FE08C081E090E0A0E045
:10055000B0E0A82AB92ACA2ADB2A3196E032F1058E
:1005600049F0660C771C881C991C56944794379464
:100570002794C3CFFA85EA892B893C898B859C8592
:10058000280F391F2E5F3F4F17C0CA01817090702E
:10059000892B61F016950795F794E79480E090E039
:1005A000A0E0B0E8E82AF92A0A2B1B2B769567957C
:1005B000579547952F5F3F4F77FDE7CF0CC0440F0E
:1005C000551F661F771F17FD4160EE0CFF1C001FB3
:1005D000111F21503040403090E0590790E06907EA
:1005E00090E4790760F32B8F3C8FDB01CA018F7792
:1005F0009070A070B07080349105A105B10561F4D0
:1006000047FD0AC0E114F1040105110529F0405C21
:100610005F4F6F4F7F4F40781A8EFE1711F081E0C9
:100620008A8F4D8F5E8F6F8F78A383E0898FCE0185
:1006300049960E940304A096E2E10C94C518A8E133
:10064000B0E0E5E2F3E00C94B51869837A838B831C
:100650009C832D833E834F83588789E0E82EF12CBD
:10066000EC0EFD1ECE010196B7010E94D8048E014A
:100670000F5E1F4FCE010596B8010E94D8048985F0
:10068000823040F08989823028F0C701B8010E9489
:10069000500501C08FEF6896E6E00C94D118A8E1F0
:1006A000B0E0E5E5F3E00C94B51869837A838B83B9
:1006B0009C832D833E834F83588789E0E82EF12C5D
:1006C000EC0EFD1ECE010196B7010E94D8048E01EA
:1006D0000F5E1F4FCE010596B8010E94D804898590
:1006E000823040F08989823028F0C701B8010E9429
:1006F000500501C08FEF6896E6E00C94D118A8E190
:10070000B0E0E5E8F3E00C94B51869837A838B8355
:100710009C832D833E834F83588789E0E82EF12CFC
:10072000EC0EFD1ECE010196B7010E94D8048E0189
:100730000F5E1F4FCE010596B8010E94D80489852F
:10074000823040F08989823028F0C701B8010E94C8
:10075000500501C081E06896E6E00C94D118ACE049
:10076000B0E0E5EBF3E00C94B91869837A838B83EE
:100770009C83CE010196BE016B5F7F4F0E94D8041F
:100780008D81823061F1823050F1843021F48E818C
:10079000882351F12EC02F81388537FD20C06E810E
:1007A0002F3131051CF06623F9F023C08EE190E073
:1007B000821B930B29853A854B855C8504C0569531
:1007C0004795379527958A95D2F76623B1F05095CE
:1007D0004095309521953F4F4F4F5F4F0EC020E021
:1007E00030E040E050E009C02FEF3FEF4FEF5FE710
:1007F00004C020E030E040E050E8B901CA012C9686
:10080000E2E00C94D518DF92EF92FF920F931F93C2
:10081000FC01E480F58006811781D18080818230DF
:1008200048F480E090E0A0E1B0E0E82AF92A0A2B41
:100830001B2BA5C0843009F49FC0823021F4EE2424
:10084000FF24870105C0E114F1040105110519F425
:10085000E0E0F0E096C0628173819FEF6238790733
:100860000CF05BC022E83FEF261B370B2A31310525
:100870002CF020E030E040E050E02AC0B801A701B1
:10088000022E04C076956795579547950A94D2F73E
:1008900081E090E0A0E0B0E004C0880F991FAA1F9B
:1008A000BB1F2A95D2F70197A109B1098E219F217B
:1008B000A023B1230097A105B10521F081E090E0CC
:1008C000A0E0B0E09A01AB01282B392B4A2B5B2B1F
:1008D000DA01C9018F779070A070B07080349105F3
:1008E000A105B10539F427FF09C0205C3F4F4F4FE8
:1008F0005F4F04C0215C3F4F4F4F5F4FE0E0F0E09F
:100900002030A0E03A07A0E04A07A0E45A0710F020
:10091000E1E0F0E079018A0127C06038710564F5F3
:10092000FB01E158FF4FD801C7018F779070A0708D
:10093000B07080349105A105B10539F4E7FE0DC012
:1009400080E490E0A0E0B0E004C08FE390E0A0E09D
:10095000B0E0E80EF91E0A1F1B1F17FF05C0169511
:100960000795F794E794319687E016950795F794E5
:10097000E7948A95D1F705C0EE24FF248701EFEFB5
:10098000F0E06E2F679566276795902F9F77D79435
:10099000DD24D7948E2F8695492F462B582F5D291D
:1009A000B701CA011F910F91FF90EF90DF9008955A
:1009B000FC01DB01408151812281622F6F7770E061
:1009C000221F2227221F9381892F880F822B282FF5
:1009D00030E0991F9927991F11969C931197211523
:1009E0003105A9F5411551056105710511F482E044
:1009F00037C082E89FEF13969C938E9312979A01CB
:100A0000AB0167E0220F331F441F551F6A95D1F7D2
:100A100083E08C930DC0220F331F441F551F129685
:100A20008D919C911397019713969C938E93129797
:100A3000203080E0380780E0480780E4580758F30A
:100A400014962D933D934D935C93179708952F3FE4
:100A5000310579F4411551056105710519F484E0FA
:100A60008C93089564FF03C081E08C9312C01C92A4
:100A700010C02F57304013963C932E93129783E06B
:100A80008C9387E0440F551F661F771F8A95D1F717
:100A9000706414964D935D936D937C9317970895AE
:100AA0001F93DC01FB019C91923008F447C08081C8
:100AB000823008F443C0943051F411961C91843074
:100AC00099F58181682F70E0611B71093FC0843006
:100AD00021F0923031F48230B9F18181882389F19B
:100AE0002DC011961C9111978230F1F08181181759
:100AF000D9F412962D913C9113978281938182179C
:100B0000930794F028173907BCF014968D919D91A6
:100B10000D90BC91A02D24813581468157812817E5
:100B200039074A075B0718F4112341F00AC08217FE
:100B30009307A407B50740F4112319F061E070E0B2
:100B400005C06FEF7FEF02C060E070E0CB011F9146
:100B50000895DF93CF93CDB7DEB7E9970FB6F8943A
:100B6000DEBF0FBECDBF89AF80E063E040E00E94F2
:100B7000091589AD82958F70982F917081E060E0A2
:100B8000492F0E94091589AD829586958770982F07
:100B9000917081E061E0492F0E94091589AD82952D
:100BA000869586958370982F917081E062E0492F39
:100BB0000E94091589AD982F991F9927991F81E0E7
:100BC00064E0492F0E94091580E062E041E00E9444
:100BD000091580E090E0A0E0B0E48DAB9EABAFAB38
:100BE000B8AF6DA97EA98FA998AD20E030E04AEF9B
:100BF00054E40E942502DC01CB0189AB9AABABAB7C
:100C0000BCAB69A97AA98BA99CA920E030E040E897
:100C10005FE30E947F0388232CF481E090E098AB8F
:100C20008FA73FC069A97AA98BA99CA920E03FEFB3
:100C30004FE757E40E941F0318164CF56DA97EA9D3
:100C40008FA998AD20E030E040E251E40E942502F7
:100C5000DC01CB01BC01CD010E944F00DC01CB01C6
:100C600098AB8FA70FC088EC90E09EA78DA78DA5AD
:100C70009EA50197F1F79EA78DA78FA598A901972B
:100C800098AB8FA78FA598A9009769F714C069A999
:100C90007AA98BA99CA90E944F00DC01CB0198ABDB
:100CA0008FA78FA598A99CA78BA78BA59CA501971B
:100CB000F1F79CA78BA780E062E040E00E94091555
:100CC00080E090E0A0EAB0E48FA398A7A9A7BAA714
:100CD0006FA178A589A59AA520E030E04AEF54E4F9
:100CE0000E942502DC01CB018BA39CA3ADA3BEA374
:100CF0006BA17CA18DA19EA120E030E040E85FE3E4
:100D00000E947F0388232CF481E090E09AA389A3BA
:100D10003FC06BA17CA18DA19EA120E03FEF4FE7DA
:100D200057E40E941F0318164CF56FA178A589A5FA
:100D30009AA520E030E040E251E40E942502DC0167
:100D4000CB01BC01CD010E944F00DC01CB019AA375
:100D500089A30FC088EC90E098A38F8F8F8D98A106
:100D60000197F1F798A38F8F89A19AA101979AA370
:100D700089A389A19AA1009769F714C06BA17CA1EE
:100D80008DA19EA10E944F00DC01CB019AA389A3F3
:100D900089A19AA19E8F8D8F8D8D9E8D0197F1F7E0
:100DA0009E8F8D8F89AD982F917081E060E0492FE3
:100DB0000E94091589AD8695982F917081E061E0B8
:100DC000492F0E94091589AD86958695982F9170B7
:100DD00081E062E0492F0E94091589AD86958695CC
:100DE0008695982F917081E064E0492F0E94091543
:100DF00080E062E041E00E94091580E090E0A0E020
:100E0000B0E4898F9A8FAB8FBC8F698D7A8D8B8D73
:100E10009C8D20E030E04AEF54E40E942502DC0182
:100E2000CB018D8B9E8BAF8BB88F6D897E898F891F
:100E3000988D20E030E040E85FE30E947F03882344
:100E40002CF481E090E09C8B8B8B3FC06D897E8978
:100E50008F89988D20E03FEF4FE757E40E941F03F2
:100E600018164CF5698D7A8D8B8D9C8D20E030E0C5
:100E700040E251E40E942502DC01CB01BC01CD011E
:100E80000E944F00DC01CB019C8B8B8B0FC088EC48
:100E900090E09A8B898B89899A890197F1F79A8BCF
:100EA000898B8B899C8901979C8B8B8B8B899C89E7
:100EB000009769F714C06D897E898F89988D0E948B
:100EC0004F00DC01CB019C8B8B8B8B899C89988B91
:100ED0008F878F8598890197F1F7988B8F8780E0AE
:100EE00062E040E00E94091580E090E0A0EAB0E4F2
:100EF0008B879C87AD87BE876B857C858D859E851E
:100F000020E030E04AEF54E40E942502DC01CB01EE
:100F10008F839887A987BA876F81788589859A8515
:100F200020E030E040E85FE30E947F0388232CF458
:100F300081E090E09E838D833FC06F8178858985B5
:100F40009A8520E03FEF4FE757E40E941F031816F1
:100F50004CF56B857C858D859E8520E030E040E2F8
:100F600051E40E942502DC01CB01BC01CD010E94AD
:100F70004F00DC01CB019E838D830FC088EC90E095
:100F80009C838B838B819C810197F1F79C838B835E
:100F90008D819E8101979E838D838D819E81009797
:100FA00069F714C06F81788589859A850E944F0002
:100FB000DC01CB019E838D838D819E819A83898301
:100FC00089819A810197F1F79A838983E9960FB60F
:100FD000F894DEBF0FBECDBFCF91DF910895DF93B0
:100FE000CF93CDB7DEB7E9970FB6F894DEBF0FBE4B
:100FF000CDBF89AF80E063E041E00E94091589AD73
:1010000082958F70982F917081E060E0492F0E9447
:10101000091589AD829586958770982F917081E02A
:1010200061E0492F0E94091589AD829586958695C4
:101030008370982F917081E062E0492F0E9409151A
:1010400089AD982F991F9927991F81E064E0492F56
:101050000E94091580E062E041E00E94091580E0ED
:1010600090E0A0E0B0E48DAB9EABAFABB8AF6DA9A4
:101070007EA98FA998AD20E030E04AEF54E40E94A9
:101080002502DC01CB0189AB9AABABABBCAB69A948
:101090007AA98BA99CA920E030E040E85FE30E9498
:1010A0007F0388232CF481E090E098AB8FA73FC0AA
:1010B00069A97AA98BA99CA920E03FEF4FE757E4E3
:1010C0000E941F0318164CF56DA97EA98FA998AD33
:1010D00020E030E040E251E40E942502DC01CB0137
:1010E000BC01CD010E944F00DC01CB0198AB8FA762
:1010F0000FC088EC90E09EA78DA78DA59EA50197B7
:10110000F1F79EA78DA78FA598A9019798AB8FA7F8
:101110008FA598A9009769F714C069A97AA98BA926
:101120009CA90E944F00DC01CB0198AB8FA78FA533
:1011300098A99CA78BA78BA59CA50197F1F79CA7C5
:101140008BA780E062E040E00E94091580E090E01B
:10115000A0EAB0E48FA398A7A9A7BAA76FA178A522
:1011600089A59AA520E030E04AEF54E40E942502C8
:10117000DC01CB018BA39CA3ADA3BEA36BA17CA17F
:101180008DA19EA120E030E040E85FE30E947F0354
:1011900088232CF481E090E09AA389A33FC06BA13F
:1011A0007CA18DA19EA120E03FEF4FE757E40E9474
:1011B0001F0318164CF56FA178A589A59AA520E004
:1011C00030E040E251E40E942502DC01CB01BC0189
:1011D000CD010E944F00DC01CB019AA389A30FC06F
:1011E00088EC90E098A38F8F8F8D98A10197F1F7ED
:1011F00098A38F8F89A19AA101979AA389A389A106
:101200009AA1009769F714C06BA17CA18DA19EA142
:101210000E944F00DC01CB019AA389A389A19AA166
:101220009E8F8D8F8D8D9E8D0197F1F79E8F8D8F67
:1012300089AD982F917081E060E0492F0E940915D7
:1012400089AD8695982F917081E061E0492F0E94C9
:10125000091589AD86958695982F917081E062E099
:10126000492F0E94091589AD869586958695982FF8
:10127000917081E064E0492F0E94091580E062E0EE
:1012800041E00E94091580E090E0A0E0B0E4898F81
:101290009A8FAB8FBC8F698D7A8D8B8D9C8D20E062
:1012A00030E04AEF54E40E942502DC01CB018D8B33
:1012B0009E8BAF8BB88F6D897E898F89988D20E04A
:1012C00030E040E85FE30E947F0388232CF481E054
:1012D00090E09C8B8B8B3FC06D897E898F89988D28
:1012E00020E03FEF4FE757E40E941F0318164CF52C
:1012F000698D7A8D8B8D9C8D20E030E040E251E449
:101300000E942502DC01CB01BC01CD010E944F00EF
:10131000DC01CB019C8B8B8B0FC088EC90E09A8B0F
:10132000898B89899A890197F1F79A8B898B8B89A7
:101330009C8901979C8B8B8B8B899C89009769F783
:1013400014C06D897E898F89988D0E944F00DC01C1
:10135000CB019C8B8B8B8B899C89988B8F878F85FE
:1013600098890197F1F7988B8F8780E062E040E0E1
:101370000E94091580E090E0A0EAB0E48B879C878A
:10138000AD87BE876B857C858D859E8520E030E0AE
:101390004AEF54E40E942502DC01CB018F83988739
:1013A000A987BA876F81788589859A8520E030E0A2
:1013B00040E85FE30E947F0388232CF481E090E003
:1013C0009E838D833FC06F81788589859A8520E0D3
:1013D0003FEF4FE757E40E941F0318164CF56B854B
:1013E0007C858D859E8520E030E040E251E40E94BE
:1013F0002502DC01CB01BC01CD010E944F00DC01C4
:10140000CB019E838D830FC088EC90E09C838B83FF
:101410008B819C810197F1F79C838B838D819E81C9
:1014200001979E838D838D819E81009769F714C0FB
:101430006F81788589859A850E944F00DC01CB01F8
:101440009E838D838D819E819A83898389819A81F0
:101450000197F1F79A838983E9960FB6F894DEBF76
:101460000FBECDBFCF91DF910895DF93CF93CDB75E
:10147000DEB7E8970FB6F894DEBF0FBECDBF80E0B1
:1014800063E041E00E94F71380E062E041E00E94E7
:10149000F71381E06FEF0E94791780E090E0A0E2FF
:1014A000B2E48DAB9EABAFABB8AF6DA97EA98FA9EF
:1014B00098AD20E030E04AEF54E40E942502DC01C0
:1014C000CB0189AB9AABABABBCAB69A97AA98BA9B1
:1014D0009CA920E030E040E85FE30E947F0388237E
:1014E0002CF481E090E098AB8FA73FC069A97AA95E
:1014F0008BA99CA920E03FEF4FE757E40E941F0310
:1015000018164CF56DA97EA98FA998AD20E030E0A2
:1015100040E251E40E942502DC01CB01BC01CD0177
:101520000E944F00DC01CB0198AB8FA70FC088EC65
:1015300090E09EA78DA78DA59EA50197F1F79EA788
:101540008DA78FA598A9019798AB8FA78FA598A96C
:10155000009769F714C069A97AA98BA99CA90E9470
:101560004F00DC01CB0198AB8FA78FA598A99CA752
:101570008BA78BA59CA50197F1F79CA78BA783E36D
:101580000E94A90582E30E94A90588E20E94A9059C
:1015900080E090E0A0E8BFE38FA398A7A9A7BAA72F
:1015A0006FA178A589A59AA520E030E04AEF54E420
:1015B0000E942502DC01CB018BA39CA3ADA3BEA39B
:1015C0006BA17CA18DA19EA120E030E040E85FE30B
:1015D0000E947F0388232CF481E090E09AA389A3E2
:1015E0003FC06BA17CA18DA19EA120E03FEF4FE702
:1015F00057E40E941F0318164CF56FA178A589A522
:101600009AA520E030E040E251E40E942502DC018E
:10161000CB01BC01CD010E944F00DC01CB019AA39C
:1016200089A30FC088EC90E098A38F8F8F8D98A12D
:101630000197F1F798A38F8F89A19AA101979AA397
:1016400089A389A19AA1009769F714C06BA17CA115
:101650008DA19EA10E944F00DC01CB019AA389A31A
:1016600089A19AA19E8F8D8F8D8D9E8D0197F1F707
:101670009E8F8D8F8CE00E94A90580E090E0A0E015
:10168000B0E4898F9A8FAB8FBC8F698D7A8D8B8DEB
:101690009C8D20E030E04AEF54E40E942502DC01FA
:1016A000CB018D8B9E8BAF8BB88F6D897E898F8997
:1016B000988D20E030E040E85FE30E947F038823BC
:1016C0002CF481E090E09C8B8B8B3FC06D897E89F0
:1016D0008F89988D20E03FEF4FE757E40E941F036A
:1016E00018164CF5698D7A8D8B8D9C8D20E030E03D
:1016F00040E251E40E942502DC01CB01BC01CD0196
:101700000E944F00DC01CB019C8B8B8B0FC088ECBF
:1017100090E09A8B898B89899A890197F1F79A8B46
:10172000898B8B899C8901979C8B8B8B8B899C895E
:10173000009769F714C06D897E898F89988D0E9402
:101740004F00DC01CB019C8B8B8B8B899C89988B08
:101750008F878F8598890197F1F7988B8F8782E023
:101760000E94A90580E090E0A0E8BFE38B879C87FA
:10177000AD87BE876B857C858D859E8520E030E0BA
:101780004AEF54E40E942502DC01CB018F83988745
:10179000A987BA876F81788589859A8520E030E0AE
:1017A00040E85FE30E947F0388232CF481E090E00F
:1017B0009E838D833FC06F81788589859A8520E0DF
:1017C0003FEF4FE757E40E941F0318164CF56B8557
:1017D0007C858D859E8520E030E040E251E40E94CA
:1017E0002502DC01CB01BC01CD010E944F00DC01D0
:1017F000CB019E838D830FC088EC90E09C838B830C
:101800008B819C810197F1F79C838B838D819E81D5
:1018100001979E838D838D819E81009769F714C007
:101820006F81788589859A850E944F00DC01CB0104
:101830009E838D838D819E819A83898389819A81FC
:101840000197F1F79A83898381E00E94A905E896C0
:101850000FB6F894DEBF0FBECDBFCF91DF910895D4
:10186000DF93CF9300D00F92CDB7DEB78A836B831F
:101870008A81882319F48B81898314C08A818130FD
:1018800021F48B81805C89830DC08A81823021F4B0
:101890008B818C5E898306C08A81833019F48B81A9
:1018A0008C5A8983898180580E94A9050F900F90D6
:1018B0000F90CF91DF910895DF93CF9300D00F92D7
:1018C000CDB7DEB79B838A8319820EC08981282F0A
:1018D00030E08A819B81FC01E20FF31F80810E942E
:1018E000EF0789818F5F89838981282F30E08A8182
:1018F0009B81FC01E20FF31F8081882339F70F9051
:101900000F900F90CF91DF910895DF93CF93CDB7D4
:10191000DEB727970FB6F894DEBF0FBECDBF6C833E
:101920007D838E839F831A828C819D81AE81BF814E
:101930000097A105B105B9F58091C5000E94EF0798
:101940004EC08C819D81AE81BF812AE030E040E0B5
:1019500050E0BC01CD010E948718DC01CB018B83D4
:101960008C819D81AE81BF812AE030E040E050E073
:10197000BC01CD010E948718DA01C9018C839D83C7
:10198000AE83BF838A81282F30E08B81882F90E03F
:10199000FC01EB53FF4F8081F901E053FF4F80833F
:1019A0008A818F5F8A838C819D81AE81BF81009700
:1019B000A105B10531F68A81815089830DC08981E5
:1019C000992787FD9095FC01E053FF4F80810E948D
:1019D000EF078981815089838981882384F727963D
:1019E0000FB6F894DEBF0FBECDBFCF91DF91089543
:1019F000DF93CF93CDB7DEB727970FB6F894DEBF4E
:101A00000FBECDBF9C838B836D834E832F838D81CF
:101A1000882F90E00896880F991F880F991F880FCC
:101A2000991F0E94A9051A8219820FC029813A8143
:101A30008B819C81FC01E20FF31F80810E94EF07E4
:101A400089819A8101969A83898389819A818830D4
:101A5000910564F38E816F810E94300C8D810E940C
:101A6000EF0727960FB6F894DEBF0FBECDBFCF911C
:101A7000DF910895DF93CF93CDB7DEB781E00E9469
:101A8000A905CF91DF910895DF93CF9300D000D0C7
:101A900000D0CDB7DEB76B837C838D839E831A82A3
:101AA0001982EBE2F0E082E08083EAE2F0E088E194
:101AB0008083E0E4F0E086E880838B819C81AD81C7
:101AC000BE81880F991FAA1FBB1F880F991FAA1FCD
:101AD000BB1F880F991FAA1FBB1F9C01AD0180E08F
:101AE00092E1AAE7B0E0BC01CD010E948718DA01BB
:101AF000C90101979A838983E0E4F0E089819A81A2
:101B0000892F99278083E9E2F0E0898180832696F6
:101B10000FB6F894DEBF0FBECDBFCF91DF91089511
:101B2000DF93CF930F92CDB7DEB78983EBE2F0E07E
:101B30008081882F90E0807290700097B9F3ECE27A
:101B4000F0E0898180830F90CF91DF910895DF933A
:101B5000CF93CDB7DEB7EBE2F0E080818823DCF7EE
:101B6000ECE2F0E08081CF91DF910895DF93CF9395
:101B700000D00F92CDB7DEB79B838A8319820EC047
:101B80008981282F30E08A819B81FC01E20FF31FBD
:101B900080810E94900D89818F5F89838981282FA0
:101BA00030E08A819B81FC01E20FF31F8081882352
:101BB00039F70F900F900F90CF91DF9108950F9309
:101BC0001F93DF93CF9300D00F92CDB7DEB79B83E7
:101BD0008A8319828981282F30E08A819B818C0138
:101BE000020F131F0E94A70DF80180830FC0898187
:101BF0008F5F89838981282F30E08A819B818C01C6
:101C0000020F131F0E94A70DF80180838981282FDE
:101C100030E08A819B81FC01E20FF31F80818332D7
:101C200031F78981282F30E08A819B81FC01E20F06
:101C3000F31F10820F900F900F90CF91DF911F91A3
:101C40000F910895DF93CF9300D0CDB7DEB780E03A
:101C500090E00E94181E9A83898389819A812FEFD0
:101C60008F3F920759F48AE290E09A838983298111
:101C70003A8180E090E0B9010E941E1E0E94311955
:101C80009C0189819A81822793270E9436190F909F
:101C90000F90CF91DF910895DF93CF93CDB7DEB74B
:101CA0000E943119CF91DF9108950F931F93DF9315
:101CB000CF93CDB7DEB7C659D0400FB6F894DEBF8C
:101CC0000FBECDBFCE018A599F4FC857DF4F9983B2
:101CD0008883C858D0408EE990E0C657DF4F99837B
:101CE0008883CA58D04099E0C457DF4F9883CC58B6
:101CF000D040C657DF4FE881F981CA58D0400080F4
:101D0000C657DF4F88819981CA58D0400196C6577F
:101D1000DF4F99838883CA58D040C857DF4FE88186
:101D2000F981C858D0400082C857DF4F8881998117
:101D3000C858D0400196C857DF4F99838883C85848
:101D4000D040C457DF4F9881CC58D0409150C457F1
:101D5000DF4F9883CC58D040C457DF4FE881CC5830
:101D6000D040EE2331F6CE0181599F4FC357DF4F4C
:101D700099838883CD58D04087EA90E0C157DF4FE0
:101D800099838883CF58D04099E0CF56DF4F98830E
:101D9000C159D040C157DF4FE881F981CF58D040B9
:101DA0000080C157DF4F88819981CF58D04001967C
:101DB000C157DF4F99838883CF58D040C357DF4F37
:101DC000E881F981CD58D0400082C357DF4F888128
:101DD0009981CD58D0400196C357DF4F99838883AE
:101DE000CD58D040CF56DF4F9881C159D040915047
:101DF000CF56DF4F9883C159D040CF56DF4FE8818F
:101E0000C159D040EE2331F6CE0188589F4FCE56AF
:101E1000DF4F99838883C259D04080EB90E0CC5645
:101E2000DF4F99838883C459D04099E0CA56DF4F69
:101E30009883C659D040CC56DF4FE881F981C45908
:101E4000D0400080CC56DF4F88819981C459D04062
:101E50000196CC56DF4F99838883C459D040CE5623
:101E6000DF4FE881F981C259D0400082CE56DF4F62
:101E700088819981C259D0400196CE56DF4F99830F
:101E80008883C259D040CA56DF4F9881C659D04086
:101E90009150CA56DF4F9883C659D040CA56DF4F7B
:101EA000E881C659D040EE2331F6FE01E55AFF4FD6
:101EB000108283E061E041E00E94F71383E060E07C
:101EC00040E00E94F71382E061E041E00E94F713D6
:101ED00060E875E280E090E00E94440D0E94350ABF
:101EE0000E94220E0E944C0EFE01E75AFF4F918382
:101EF00080838DB79EB708970FB6F8949EBF0FBE2C
:101F00008DBFADB7BEB71196CE018F579F4F1196BB
:101F10009C938E9385E090E013969C938E931297FA
:101F200080E690E015969C938E931497FE01E75AF5
:101F3000FF4F8081918117969C938E9316970E94F4
:101F40005B19EDB7FEB738960FB6F894FEBF0FBE1B
:101F5000EDBFFE01E95AFF4F1182108229C0FE0138
:101F6000E95AFF4F80819181AC014C5F5F4FFE01C8
:101F7000E95AFF4F20813181CE018F579F4FFC01DD
:101F8000E20FF31F8081282F2F5FCE0188589F4FCB
:101F9000FC01E40FF51F2083DE01A95ABF4FFE01AB
:101FA000E95AFF4F80819181019611969C938E93FF
:101FB000FE01E95AFF4F80819181843091057CF2C6
:101FC000FE01EB5AFF4F1182108207C40E94A70D39
:101FD000FE01E45AFF4F8083FE01EF5AFF4F80E07D
:101FE00090E0AAEFB3E480839183A283B3838E0150
:101FF000035B1F4FFE01EF5AFF4F608171818281A9
:10200000938120E030E04AEF54E40E942502DC0195
:10201000CB01F80180839183A283B383FE01E35B4C
:10202000FF4F608171818281938120E030E040E840
:102030005FE30E947F03882344F4FE01E55BFF4FCA
:1020400081E090E09183808364C0FE01E35BFF4FF9
:10205000608171818281938120E03FEF4FE757E4F7
:102060000E941F0318160CF043C0FE01EF5AFF4FE9
:10207000608171818281938120E030E040E251E40F
:102080000E942502DC01CB018E01055B1F4FBC01C4
:10209000CD010E944F00DC01CB01F80191838083C8
:1020A0001FC0FE01E75BFF4F88EC90E091838083C7
:1020B000FE01E75BFF4F808191810197F1F7FE01FF
:1020C000E75BFF4F91838083DE01A55BBF4FFE017D
:1020D000E55BFF4F80819181019711969C938E93D0
:1020E000FE01E55BFF4F808191810097D1F628C00A
:1020F0008E01055B1F4FFE01E35BFF4F6081718125
:10210000828193810E944F00DC01CB01F801918311
:102110008083DE01A95BBF4FFE01E55BFF4F80813D
:10212000918111969C938E93FE01E95BFF4F808114
:1021300091810197F1F7FE01E95BFF4F9183808365
:10214000FE01E45AFF4F80818A3039F0FE01E55AE2
:10215000FF4F8081883008F41AC3FE01E55AFF4F13
:102160008081282F30E0CE01835A9F4FFC01E20F7F
:10217000F31F108200D000D000D0EDB7FEB731962B
:10218000CE01835A9F4F9183808385E690E09383AD
:102190008283CE018A579F4F958384830E948C1936
:1021A0008DB79EB706960FB6F8949EBF0FBE8DBF33
:1021B000FE01E55AFF4F1082CE01835A9F4F0E94C5
:1021C0005119CE018A599F4F0E945119CE0188584A
:1021D0009F4F0E945119CE01835A9F4F9E012A5949
:1021E0003F4FB9010E944819009709F024C180911E
:1021F000DA00882309F090C00E943A0D80E061E087
:102200000E94300C89E690E00E945C0CFE01ED5BC0
:10221000FF4F80E090E0A8E4B3E480839183A28341
:10222000B3838E01015C1F4FFE01ED5BFF4F6081A8
:1022300071818281938120E030E04AEF54E40E9472
:102240002502DC01CB01F80180839183A283B38353
:10225000FE01FF96608171818281938120E030E0F0
:1022600040E85FE30E947F0388232CF481E090E044
:102270009EAF8DAF46C0FE01FF9660817181828165
:10228000938120E03FEF4FE757E40E941F031816A9
:1022900064F5FE01ED5BFF4F608171818281938166
:1022A00020E030E040E251E40E942502DC01CB0155
:1022B000BC01CD010E944F00DC01CB019EAF8DAF70
:1022C0000FC088EC90E09CAF8BAF8BAD9CAD0197BD
:1022D000F1F79CAF8BAF8DAD9EAD01979EAF8DAFEB
:1022E0008DAD9EAD009769F748C2FE01FF966081F3
:1022F0007181828193810E944F00DC01CB019EAFEE
:102300008DAF8DAD9EAD9AAF89AF89AD9AAD019776
:10231000F1F79AAF89AF31C28091DA00813009F0CC
:102320002CC20E943A0D80E061E00E94300C84E7EC
:1023300090E00E945C0C80E090E0A8E4B3E48DABF8
:102340009EABAFABB8AF6DA97EA98FA998AD20E0C9
:1023500030E04AEF54E40E942502DC01CB0189AB56
:102360009AABABABBCAB69A97AA98BA99CA920E0BD
:1023700030E040E85FE30E947F0388232CF481E093
:1023800090E098AB8FA73FC069A97AA98BA99CA9B7
:1023900020E03FEF4FE757E40E941F0318164CF56B
:1023A0006DA97EA98FA998AD20E030E040E251E40C
:1023B0000E942502DC01CB01BC01CD010E944F002F
:1023C000DC01CB0198AB8FA70FC088EC90E09EA7F3
:1023D0008DA78DA59EA50197F1F79EA78DA78FA527
:1023E00098A9019798AB8FA78FA598A9009769F72F
:1023F00014C069A97AA98BA99CA90E944F00DC018D
:10240000CB0198AB8FA78FA598A99CA78BA78BA56D
:102410009CA50197F1F79CA78BA781E061E00E9442
:10242000300C8DE790E00E945C0C82E061E041E0BE
:102430000E940915A2C1CE01835A9F4F9E012159C6
:102440003F4FB9010E944819009709F0F8C00E9457
:102450003A0D80E061E00E94300C87E890E00E9435
:102460005C0C80E090E0A8E4B3E48FA398A7A9A750
:10247000BAA76FA178A589A59AA520E030E04AEF18
:1024800054E40E942502DC01CB018BA39CA3ADA3E5
:10249000BEA36BA17CA18DA19EA120E030E040E80D
:1024A0005FE30E947F0388232CF481E090E09AA3ED
:1024B00089A33FC06BA17CA18DA19EA120E03FEF2D
:1024C0004FE757E40E941F0318164CF56FA178A53B
:1024D00089A59AA520E030E040E251E40E9425025F
:1024E000DC01CB01BC01CD010E944F00DC01CB011E
:1024F0009AA389A30FC088EC90E098A38F8F8F8D4B
:1025000098A10197F1F798A38F8F89A19AA10197BC
:102510009AA389A389A19AA1009769F714C06BA116
:102520007CA18DA19EA10E944F00DC01CB019AA34A
:1025300089A389A19AA19E8F8D8F8D8D9E8D0197E4
:10254000F1F79E8F8D8F80E065E00E94300CCE0108
:102550008F579F4F0E945C0C80E090E0A8E4B3E4AA
:10256000898F9A8FAB8FBC8F698D7A8D8B8D9C8D67
:1025700020E030E04AEF54E40E942502DC01CB0168
:102580008D8B9E8BAF8BB88F6D897E898F89988D4F
:1025900020E030E040E85FE30E947F0388232CF4D2
:1025A00081E090E09C8B8B8B3FC06D897E898F8909
:1025B000988D20E03FEF4FE757E40E941F03181665
:1025C0004CF5698D7A8D8B8D9C8D20E030E040E25A
:1025D00051E40E942502DC01CB01BC01CD010E9427
:1025E0004F00DC01CB019C8B8B8B0FC088EC90E003
:1025F0009A8B898B89899A890197F1F79A8B898BB4
:102600008B899C8901979C8B8B8B8B899C890097EC
:1026100069F7B3C06D897E898F89988D0E944F00BC
:10262000DC01CB019C8B8B8B8B899C89988B8F8752
:102630008F8598890197F1F7988B8F879EC0CE017F
:10264000835A9F4F9E0128583F4FB9010E94481955
:10265000009709F088C00E943A0D80E061E00E9476
:10266000300C8CE890E00E945C0C80E090E0A8E4E4
:10267000B3E48B879C87AD87BE876B857C858D8512
:102680009E8520E030E04AEF54E40E942502DC0100
:10269000CB018F839887A987BA876F8178858985D1
:1026A0009A8520E030E040E85FE30E947F038823C2
:1026B0002CF481E090E09E838D833FC06F8178850C
:1026C00089859A8520E03FEF4FE757E40E941F037A
:1026D00018164CF56B857C858D859E8520E030E055
:1026E00040E251E40E942502DC01CB01BC01CD0196
:1026F0000E944F00DC01CB019E838D830FC088ECCC
:1027000090E09C838B838B819C810197F1F79C8364
:102710008B838D819E8101979E838D838D819E8188
:10272000009769F714C06F81788589859A850E9422
:102730004F00DC01CB019E838D838D819E819A8326
:10274000898389819A810197F1F79A83898381E04E
:1027500061E00E94300C81E990E00E945C0C81E015
:102760008093DA000AC00E943A0D80E061E00E9486
:10277000300C88E990E00E945C0CCE01835A9F4F98
:1027800060E070E049E050E00E9441191AC0FE018B
:10279000E55AFF4F8081282F30E0CE01835A9F4FAA
:1027A000DC01A20FB31FFE01E45AFF4F80818C931E
:1027B000DE01A55ABF4FFE01E55AFF4F80818F5FB2
:1027C0008C93DE01AB5ABF4FFE01EB5AFF4F808165
:1027D0009181019611969C938E93FE01EB5AFF4FC7
:1027E00080819181833091050CF4F0CB79CBDF931C
:1027F000CF93CDB7DEB728970FB6F894DEBF0FBEE4
:10280000CDBF8A836B834C8319828B81883008F01B
:10281000F4C08C81882309F077C08A81282F30E0AA
:1028200038872F838F8198858130910559F12F81C9
:102830003885223031052CF48F819885009769F016
:1028400060C02F8138852230310589F18F819885CC
:102850008330910509F440C054C0AAE3B0E0EAE334
:10286000F0E08081482F8B81282F30E081E090E0DC
:10287000022E02C0880F991F0A94E2F780958423E4
:102880008C93BDC0A7E3B0E0E7E3F0E08081482F80
:102890008B81282F30E081E090E0022E02C0880F6B
:1028A000991F0A94E2F7809584238C93A8C0A4E32F
:1028B000B0E0E4E3F0E08081482F8B81282F30E006
:1028C00081E090E0022E02C0880F991F0A94E2F77F
:1028D000809584238C9393C0A1E3B0E0E1E3F0E022
:1028E0008081482F8B81282F30E081E090E0022EFC
:1028F00002C0880F991F0A94E2F7809584238C9375
:102900007EC081E089837BC08C81813009F072C0F8
:102910008A81282F30E03E832D838D819E818130F6
:10292000910549F12D813E81223031052CF48D81B4
:102930009E81009761F05BC02D813E812230310580
:1029400071F18D819E8183309105E9F150C0AAE338
:10295000B0E0EAE3F0E08081482F8B81282F30E05F
:1029600081E090E0022E02C0880F991F0A94E2F7DE
:10297000842B8C9344C0A7E3B0E0E7E3F0E08081D0
:10298000482F8B81282F30E081E090E0022E02C09A
:10299000880F991F0A94E2F7842B8C9330C0A4E32C
:1029A000B0E0E4E3F0E08081482F8B81282F30E015
:1029B00081E090E0022E02C0880F991F0A94E2F78E
:1029C000842B8C931CC0A1E3B0E0E1E3F0E08081B4
:1029D000482F8B81282F30E081E090E0022E02C04A
:1029E000880F991F0A94E2F7842B8C9308C081E02A
:1029F000898305C081E0898302C081E08983898160
:102A000028960FB6F894DEBF0FBECDBFCF91DF91F1
:102A10000895DF93CF93CDB7DEB728970FB6F8941C
:102A2000DEBF0FBECDBF8A836B834C8319828B813F
:102A3000883008F0F0C08C81813009F06EC08A8146
:102A4000282F30E038872F838F819885813091053A
:102A500049F12F813885223031052CF48F819885FA
:102A6000009761F05AC02F8138852230310571F10D
:102A70008F81988583309105E9F14FC0ABE3B0E0D9
:102A8000EBE3F0E08081482F8B81282F30E081E05C
:102A900090E0022E02C0880F991F0A94E2F7842B5F
:102AA0008C933BC0A8E3B0E0E8E3F0E08081482FDE
:102AB0008B81282F30E081E090E0022E02C0880F49
:102AC000991F0A94E2F7842B8C9327C0A5E3B0E00A
:102AD000E5E3F0E08081482F8B81282F30E081E012
:102AE00090E0022E02C0880F991F0A94E2F7842B0F
:102AF0008C9313C0A2E3B0E0E2E3F0E08081482FC2
:102B00008B81282F30E081E090E0022E02C0880FF8
:102B1000991F0A94E2F7842B8C938C81882309F007
:102B200077C08A81282F30E03E832D838D819E815E
:102B30008130910559F12D813E81223031052CF4EF
:102B40008D819E81009769F060C02D813E81223089
:102B5000310589F18D819E818330910509F440C052
:102B600054C0ABE3B0E0EBE3F0E08081482F8B8111
:102B7000282F30E081E090E0022E02C0880F991FDC
:102B80000A94E2F7809584238C9347C0A8E3B0E0D1
:102B9000E8E3F0E08081482F8B81282F30E081E04E
:102BA00090E0022E02C0880F991F0A94E2F78095E8
:102BB00084238C9332C0A5E3B0E0E5E3F0E08081AC
:102BC000482F8B81282F30E081E090E0022E02C058
:102BD000880F991F0A94E2F7809584238C931DC077
:102BE000A2E3B0E0E2E3F0E08081482F8B81282F60
:102BF00030E081E090E0022E02C0880F991F0A9415
:102C0000E2F7809584238C9308C081E0898305C016
:102C100081E0898302C081E08983898128960FB68B
:102C2000F894DEBF0FBECDBFCF91DF910895DF9343
:102C3000CF93CDB7DEB727970FB6F894DEBF0FBEA0
:102C4000CDBF8A836B835D834C8319828B818830EF
:102C500008F074C08A81282F30E03F832E834E8194
:102C60005F814130510559F18E819F8182309105FC
:102C700034F42E813F812115310569F05CC04E810D
:102C80005F814230510579F18E819F8183309105BA
:102C900009F43DC050C0E9E3F0E08081282F30E026
:102CA0008B81882F90E0A90102C0559547958A95A0
:102CB000E2F7CA018170EC81FD81808341C0E6E3C7
:102CC000F0E08081282F30E08B81882F90E0A901EF
:102CD00002C0559547958A95E2F7CA018170EC814B
:102CE000FD8180832DC0E3E3F0E08081282F30E078
:102CF0008B81882F90E0A90102C0559547958A9550
:102D0000E2F7CA018170EC81FD81808319C0E0E3A4
:102D1000F0E08081282F30E08B81882F90E0A9019E
:102D200002C0559547958A95E2F7CA018170EC81FA
:102D3000FD81808305C081E0898302C081E08983B1
:102D4000898127960FB6F894DEBF0FBECDBFCF9115
:102D5000DF910895DF93CF9300D000D00F92CDB7CD
:102D6000DEB78A836B8319828A81282F30E03D8306
:102D70002C838C819D818130910509F43DC02C818B
:102D80003D81223031052CF48C819D81009771F0BA
:102D9000A5C02C813D812230310509F453C08C81BE
:102DA0009D818330910509F473C098C0AAE3B0E017
:102DB000EAE3F0E08081482F8B81282F30E081E02A
:102DC00090E002C0880F991F2A95E2F7842B8C931C
:102DD000ABE3B0E0EBE3F0E08081482F8B81282F5C
:102DE00030E081E090E0022E02C0880F991F0A9423
:102DF000E2F784278C9374C0A7E3B0E0E7E3F0E048
:102E00008081482F8B81282F30E081E090E002C044
:102E1000880F991F2A95E2F7842B8C93A8E3B0E0E2
:102E2000E8E3F0E08081482F8B81282F30E081E0BB
:102E300090E0022E02C0880F991F0A94E2F78427BF
:102E40008C934EC0A4E3B0E0E4E3F0E08081482F2F
:102E50008B81282F30E081E090E002C0880F991F1D
:102E60002A95E2F7842B8C93A5E3B0E0E5E3F0E04C
:102E70008081482F8B81282F30E081E090E0022E66
:102E800002C0880F991F0A94E2F784278C9328C008
:102E9000A1E3B0E0E1E3F0E08081482F8B81282FAF
:102EA00030E081E090E002C0880F991F2A95E2F798
:102EB000842B8C93A2E3B0E0E2E3F0E08081482F22
:102EC0008B81282F30E081E090E0022E02C0880F35
:102ED000991F0A94E2F784278C9302C081E08983CA
:102EE00089810F900F900F900F900F90CF91DF91ED
:102EF0000895DF93CF93CDB7DEB727970FB6F89439
:102F0000DEBF0FBECDBF8A836B8319828B8188237E
:102F100091F58A81282F30E03F832E838E819F8117
:102F200081309105C9F02E813F81223031052CF48A
:102F30008E819F81009761F01BC02E813F812230DE
:102F4000310571F08E819F818330910569F010C049
:102F5000EAE3F0E010824AC0EAE3F0E0108246C003
:102F6000EAE3F0E0108242C0EAE3F0E010823EC003
:102F700081E089833BC08B818F3FB1F58A81282F07
:102F800030E03D832C838C819D8181309105D1F08F
:102F90002C813D81223031052CF48C819D8100975C
:102FA00061F01FC02C813D812230310581F08C8180
:102FB0009D818330910581F014C0EAE3F0E08FEF4A
:102FC000808314C0EAE3F0E08FEF80830FC0EAE370
:102FD000F0E08FEF80830AC0EAE3F0E08FEF8083B8
:102FE00005C081E0898302C081E0898389812796B9
:102FF0000FB6F894DEBF0FBECDBFCF91DF9108951D
:10300000DF93CF93CDB7DEB727970FB6F894DEBF27
:103010000FBECDBF8A836B8319828B818F3FB1F541
:103020008A81282F30E03F832E838E819F818130DB
:103030009105D1F02E813F81223031052CF48E8113
:103040009F81009761F01FC02E813F8122303105A2
:1030500081F08E819F818330910581F014C0EBE374
:10306000F0E08FEF808349C0E8E3F0E08FEF8083EA
:1030700044C0E5E3F0E08FEF80833FC0E2E3F0E09F
:103080008FEF80833AC081E0898337C08B818823AA
:1030900091F58A81282F30E03D832C838C819D819E
:1030A00081309105C9F02C813D81223031052CF40D
:1030B0008C819D81009761F01BC02C813D81223065
:1030C000310571F08C819D818330910569F010C0CC
:1030D000EBE3F0E0108211C0E8E3F0E010820DC0F5
:1030E000E5E3F0E0108209C0E2E3F0E0108205C001
:1030F00081E0898302C081E08983898127960FB6A8
:10310000F894DEBF0FBECDBFCF91DF910895A1E24D
:103110001A2EAA1BBB1BFD010DC0AA1FBB1FEE1F51
:10312000FF1FA217B307E407F50720F0A21BB30B9C
:10313000E40BF50B661F771F881F991F1A9469F718
:1031400060957095809590959B01AC01BD01CF0174
:1031500008952F923F924F925F926F927F928F923B
:103160009F92AF92BF92CF92DF92EF92FF920F9316
:103170001F93CF93DF93CDB7DEB7CA1BDB0B0FB620
:10318000F894DEBF0FBECDBF09942A8839884888DD
:103190005F846E847D848C849B84AA84B984C88473
:1031A000DF80EE80FD800C811B81AA81B981CE0F6A
:1031B000D11D0FB6F894DEBF0FBECDBFED0108954F
:1031C000A0E0B0E0E6EEF8E10C94B118EC01A880C4
:1031D000B980CA80DB80A114B104C104D10441F4D8
:1031E00084E2A82E89EDB82E8BE5C82E87E0D82E74
:1031F000C601B5012DE133EF41E050E00E94711F9F
:1032000027EA31E440E050E00E94521F7B018C012C
:10321000C601B5012DE133EF41E050E00E94711F7E
:10322000CA01B9012CEE34EF4FEF5FEF0E94521F3D
:103230006E0D7F1D801F911F97FF04C0615070406D
:1032400080409048688379838A839B839B013F7782
:10325000C901CDB7DEB7EAE00C94CD180E94E018A2
:10326000089581EC90E00E94E0180895A0E0B0E09D
:103270008093C1009093C200A093C300B093C40098
:103280000895DC0101C06D9341505040E0F708956E
:10329000FB01DC018D91019080190110D9F3990B8C
:1032A0000895DC016C9161566A3108F0605E6F5BD5
:1032B0006D93C1F70895AEE0B0E0E1E6F9E10C945A
:1032C000B7180D891E898F89988D97FF02C080E0FD
:1032D00090E801979E838D831A83098386E08C830F
:1032E0009E01255E3F4FCE010196698D7A8DA90121
:1032F0000E94A6194D815E8157FD0AC02F81388535
:10330000421753070CF49A01020F131FF8011082A1
:103310002E96E4E00C94D318AEE0B0E0E2E9F9E1D7
:103320000C94B91885E08C838B899C899A83898356
:103330009E01295E3F4FCE0101966D897E89A901CC
:103340000E94071D2E96E2E00C94D518ABE0B0E089
:10335000ECEAF9E10C94A9183C012B015A01FC019B
:1033600017821682838181FD03C06FEF7FEFC6C194
:103370009AE0892E1E010894211C311CF30123813F
:10338000F20123FD859123FF81912F01882309F408
:10339000B2C1853239F423FD859123FF81912F013C
:1033A000853229F490E0B3010E948E1EE7CF982F5A
:1033B000FF24EE249924FFE1FF15D0F09B3269F041
:1033C0009C3228F4903259F0933291F40EC09D3221
:1033D00049F0903369F441E024C052E0F52A84E0DA
:1033E000F82A28C098E0F92A25C0E0E1FE2A22C088
:1033F000F7FC29C0892F80538A3070F4F6FE05C08F
:10340000989C902C1124980E15C0E89CE02C112457
:10341000E80EF0E2FF2A0EC09E3229F4F6FC6BC1E2
:1034200040E4F42A07C09C3619F450E8F52A02C09B
:10343000983649F4F20123FD959123FF91912F01D4
:10344000992309F0B8CF892F8554833018F0805222
:10345000833038F444E050E0A40EB51E5FE3598396
:103460000FC0933631F0933779F0933509F056C099
:1034700020C0F5018081898342E050E0A40EB51E92
:10348000610101E010E012C0F501C080D180F6FCBE
:1034900003C06FEF7FEF02C0692D70E042E050E0A3
:1034A000A40EB51EC6010E94411E8C015FE7F522E5
:1034B00014C0F501C080D180F6FC03C06FEF7FEF30
:1034C00002C0692D70E042E050E0A40EB51EC601B6
:1034D0000E94361E8C0150E8F52AF3FE07C01AC080
:1034E00080E290E0B3010E948E1EEA948E2D90E05F
:1034F00008171907A8F30EC0F601F7FC8591F7FE2F
:1035000081916F0190E0B3010E948E1EE110EA9458
:10351000015010400115110579F7EAC0943611F0F9
:10352000993669F5F7FE08C0F501208131814281A5
:10353000538184E090E00AC0F501808191819C0173
:10354000442737FD4095542F82E090E0A80EB91E25
:103550009FE6F92257FF09C0509540953095219577
:103560003F4F4F4F5F4FE0E8FE2ACA01B901A1016A
:103570002AE030E00E94D41ED82ED21840C09537E1
:1035800029F41F2D1F7E2AE030E01DC01F2D197F5A
:103590009F3661F0903720F4983509F0ACC00FC029
:1035A000903739F0983709F0A6C004C028E030E021
:1035B0000AC0106114FD146020E130E004C014FD65
:1035C000166020E132E017FF08C0F50160817181CB
:1035D0008281938144E050E008C0F50180819181AF
:1035E000BC0180E090E042E050E0A40EB51EA101D5
:1035F0000E94D41ED82ED2188FE7F82EF122F6FEA4
:103600000BC05EEFF522D91438F4F4FE07C0F2FCCB
:1036100005C08FEEF82202C01D2D01C0192DF4FE49
:103620000DC0FE01ED0DF11D8081803319F499EE7E
:10363000F92208C01F5FF2FE05C003C08F2D8678F7
:1036400009F01F5F0F2DF3FC14C0F0FE0FC01E1514
:1036500010F09D2C0BC09D2C9E0C911A1E2D06C0A7
:1036600080E290E0B3010E948E1E1F5F1E15C0F322
:1036700004C01E1510F4E11A01C0EE2404FF0FC0AF
:1036800080E390E0B3010E948E1E02FF1DC001FD89
:1036900003C088E790E00EC088E590E00BC0802F63
:1036A000867891F001FF02C08BE201C080E2F7FC56
:1036B0008DE290E0B3010E948E1E06C080E390E090
:1036C000B3010E948E1E9A94D914C0F3DA94F101CA
:1036D000ED0DF11D808190E0B3010E948E1EDD2072
:1036E000A9F706C080E290E0B3010E948E1EEA9422
:1036F000EE20C1F743CEF30166817781CB012B9693
:10370000E2E10C94C518FC0120FD08C023FD05C0B2
:1037100022FF02C073836283518340830895EF9236
:10372000FF920F931F9344FF02C033E011C046FF86
:1037300002C034E00DC0DB01FC01AA0FBB1FEE1F6D
:10374000FF1F1094D1F76A0F7B1F8E1F9F1F31E060
:10375000660F771F881F991F3150D1F77B018C01AD
:10376000E20EF11C011D111DA8019701B701CA014C
:103770001F910F91FF90EF9008950F931F93CF9398
:10378000DF938C01C8010E944C1EEC0197FD08C01C
:103790000E94231E892BB1F7CE01B8010E94BA1EE8
:1037A000CE01DF91CF911F910F910895A0E0B0E07D
:1037B000ECEDFBE10C94B118EC01C62E5A01122F6E
:1037C0000E944C1EAC018B3219F08D3251F41068FE
:1037D000CA9409F46DC0CE010E944C1EAC0197FD45
:1037E00067C06DEFD62ED1228D2D807301F5403349
:1037F000F1F4CA9409F447C0CE010E944C1EAC01FA
:1038000097FD41C082E0D82A483711F0483559F475
:1038100080E4D82ACA94B9F1CE010E944C1EAC01B2
:1038200099232CF430C0D6FC02C080E1D82AEE24C3
:10383000FF248701242F2053283088F0D4FC09C0AE
:103840002A3068F0D6FE05C02F7D822F8151863048
:1038500028F0CA01BE010E94BA1E12C02750C8013A
:10386000B7014D2D0E948F1B7B018C0182E0D82A6D
:10387000CA9461F0CE010E944C1EAC0197FFDACFD2
:10388000D1FC04C015C0EE24FF248701D7FE08C078
:1038900010950095F094E094E11CF11C011D111DA0
:1038A000C501B801A7012D2D0E94831B81E001C035
:1038B00080E0CDB7DEB7EAE00C94CD18A0E2B0E02E
:1038C000E4E6FCE10C94AD186C01A62E8A017901A6
:1038D000FE01319680E2DF011D928A95E9F770E0E2
:1038E00030E060E040E050E04F01A1E0B0E0F601E0
:1038F0008381F70183FD259183FF21917F0122239D
:1039000009F47EC02E3519F44115510569F1872F50
:1039100090E08417950744F42D3551F12D3221F4B0
:10392000332329F431E021C0332309F4622F322FED
:10393000832F869586958695F401E80FF11D832FD8
:1039400087703D0102C0660C771C8A95E2F72081E2
:1039500026292083361711F430E007C0361710F4FB
:103960003F5FE6CF3150E4CF71E04F5F5F4FBFCF95
:10397000332319F08E8180628E83772359F0FE0104
:1039800031969E012F5D3F4F808180958193E21794
:10399000F307D1F7BB24B3944E010894811C911C0A
:1039A000C6010E944C1EAC0197FD22C086958695EB
:1039B0008695F401E80FF11D808190E09A0127704F
:1039C000307002C0959587952A95E2F780FD05C075
:1039D000CA01B6010E94BA1E0BC00115110519F0EB
:1039E000D8014D938D01AA94BB24AA20C9F602C028
:1039F000BB2031F40115110529F0F801108202C035
:103A0000EE24FF24C701A096EEE00C94C918A0E0B4
:103A1000B0E0EDE0FDE10C94AD185C016B013A0102
:103A2000FC01178216828824EAC0812F90E00E9450
:103A3000231E892B21F0C5010E94BD1BE0C0153259
:103A400049F4F601F3FC6591F3FE61916F01653273
:103A500069F415E2C5010E944C1E97FDDCC01817E1
:103A600009F4CDC0B5010E94BA1EDAC06A3219F05D
:103A7000162F00E006C0F3FC1591F3FE11916F01C3
:103A800001E099240FC00260692D70E080E090E0B1
:103A900040E20E948F1B962EF601F3FC1591F3FE77
:103AA00011916F01212F20532A3068F301FD03C0CB
:103AB00099249A9403C0992009F4B2C0183621F0D1
:103AC0001C3699F4F6010BC0F601F3FC6591F3FE88
:103AD0006191683619F06F01162F07C00860046005
:103AE000F3FC1591F3FE11916F01112309F498C0B5
:103AF00084E590E0612F70E00E942B1E892B09F471
:103B00008FC0802F00FF03C0EE24FF2407C0F30105
:103B1000E080F18022E030E0620E731E1E3651F428
:103B2000F5014681578160E070E0C701202F0E94B7
:103B3000831B65C0133691F481FD02C099249394D0
:103B4000C5010E944C1E97FD66C0E114F10419F0F6
:103B5000F70181937F019A9499F74FC01B3559F46F
:103B6000C501692DA70196010E945E1C6C0100979A
:103B700009F043C03DC0C5010E94BD1B97FD4BC06D
:103B80001F3659F1103728F4143629F1193639F552
:103B900027C0133719F0153711F51DC0C5010E9454
:103BA0004C1EEC0197FD11C00E94231E892B29F0A9
:103BB000CE01B5010E94BA1E08C0E114F10419F04B
:103BC000F701C1937F019A9449F7E114F104A9F038
:103BD000F701108212C0006203C0006101C00064DE
:103BE000C501692DA701202F0E94D61B882329F427
:103BF000F5018381807379F413C000FF8394F5018C
:103C0000F380F601F3FC1591F3FE11916F0111237E
:103C100009F00BCF05C0882019F42FEF3FEF02C049
:103C2000282D30E0C901CDB7DEB7EEE00C94C918FD
:103C3000A8E1B0E042E050E00C94341F0E94421F23
:103C4000272F0C94431F91112AC1803219F08950FB
:103C50008550D0F70895FC010590061621F000204C
:103C6000D9F7C00108953197CF010895FC0105905F
:103C7000615070400110D8F7809590958E0F9F1F6E
:103C80000895FC016150704001900110D8F78095B3
:103C900090958E0F9F1F0895CF93DF93EC014B817A
:103CA00040FF1AC046FF0AC04F7B4B838E819F8125
:103CB00001969F838E838A81282F2BC042FF13C0D9
:103CC000E881F9818081282F332727FD3095211540
:103CD000310529F440624B832FEF3FEF1BC0319633
:103CE000F983E88311C0EA85FB85CE0109959C0123
:103CF00097FF0AC09B812F5F3F4F11F080E201C008
:103D000080E1892B8B83E8CF8E819F8101969F83F1
:103D10008E8330E0C901DF91CF9108950F931F93F7
:103D2000CF93DF938C01EB018B8181FF1BC082FF5E
:103D30000DC02E813F818C819D812817390764F445
:103D4000E881F9810193F983E88306C0E885F98564
:103D5000802F0995892B31F48E819F8101969F8355
:103D60008E8302C00FEF1FEFC801DF91CF911F912B
:103D70000F9108959C01FB01838180FF11C086FD96
:103D80000FC09FEF2F3F390759F0228380648F7D4A
:103D900083838681978101979783868330E002C071
:103DA0002FEF3FEFC9010895FA01AA27283051F1FA
:103DB000203181F1E8946F936E7F6E5F7F4F8F4F5C
:103DC0009F4FAF4FB1E03ED0B4E03CD0670F781FBB
:103DD000891F9A1FA11D680F791F8A1F911DA11DA0
:103DE0006A0F711D811D911DA11D20D009F46894D9
:103DF0003F912AE0269F11243019305D3193DEF681
:103E0000CF010895462F4770405D4193B3E00FD036
:103E1000C9F7F6CF462F4F70405D4A3318F0495D21
:103E200031FD4052419302D0A9F7EACFB4E0A69504
:103E30009795879577956795BA95C9F70097610526
:103E4000710508959B01AC010A2E0694579547957C
:103E500037952795BA95C9F7620F731F841F951F71
:103E6000A01D0895DC01CB01FC01E199FECF06C045
:103E7000FFBBEEBBE09A31960DB20D92415050401F
:103E8000B8F70895262FE199FECF9FBB8EBB2DBBBF
:103E90000FB6F894E29AE19A0FBE01960895992719
:103EA00088270895629FD001739FF001829FE00DE3
:103EB000F11D649FE00DF11D929FF00D839FF00DA9
:103EC000749FF00D659FF00D9927729FB00DE11D55
:103ED000F91F639FB00DE11DF91FBD01CF01112432
:103EE000089597FB092E05260ED057FD04D00FD953
:103EF0000AD0001C38F450954095309521953F4FDD
:103F00004F4F5F4F0895F6F79095809570956195A6
:0C3F10007F4F8F4F9F4F0895F894FFCF14
:103F1C002530345800253878004E5243203746332C
:103F2C00313335003731303141413030004C45446C
:103F3C00204953204F4E003637303100363730325F
:103F4C0000374632373335004552524F5200333129
:103F5C003031414130300032373031303030300088
:103F6C0032373032303030300000000000000000BA
:103F7C000001000000303132333435363738390027
:00000001FF
